:100000000C9444020C94E80B0C948B020C948B021D
:100010000C948B020C948B020C948B020C948B022C
:100020000C948B020C948B020C940E210C94E02106
:100030000C9495190C948B020C948B020C948B02EB
:100040000C948B020C948B020C948B020C948B02FC
:100050000C948B020C94E2190C948B020C948B027E
:100060000C948B020C948B020C948B020C948B02DC
:100070000C948B020C948B020C948B020C948B02CC
:100080000C948B020C948B020C948B020C948B02BC
:100090000C948B020C948B020C948B020C948B02AC
:1000A0000C948B020C948B020C948B023E0F3E0F2F
:1000B000700F700FBD0FDB0FFC10FC10E60F7B10F4
:1000C0008C108C10EC10FC10FC10F5109C119C1185
:1000D000AE11AE11A511AE11AE11AE119C119C1155
:1000E000AA11AE11AE11AA114D2274226C237422F2
:1000F0006C23C022E3226C233A23492329001400F5
:100100001A000800150017002B0004001600070055
:1001100009000A00E0001D611B68060019000500C7
:10012000000000002F6430002A4129620000000016
:1001300000000000000000001C0018000C0012006D
:1001400013002A000B000D000E000F0033003400D6
:100150001100100036003700380031002C00284212
:100160002D002E0000000000000000000000000034
:100170000000000001000100010001000100010079
:1001800001001E001F0020002100220001001E02AD
:100190001F02200221022202000000002F02300272
:1001A0000100010000000000010001000100010049
:1001B00001000100010001000100010023002400F2
:1001C0002500260027000100230224022502260222
:1001D00027020100010003512F0030000000000041
:1001E0000100010001000100000000000100010009
:1001F00001000100010001000100010001000100F7
:1002000001000100010001000100010001000100E6
:100210000000000001000100045101000000000086
:10022000010001000100010049004A0052004D0098
:100230004B0001004C00500051004F004E000100E7
:1002400001000100010001000100010001000100A6
:100250000100010000000000010001000100010098
:10026000000000000000000000000000000000008E
:10027000000000000000000000000000000000007E
:10028000000000000000000000000000000000006E
:10029000000000000000000000000000000000005E
:1002A00000004000410042004300000000003D000B
:1002B0003E003F004400000000003A003B003C00CC
:1002C00045000000000001000000000000000000E8
:1002D000000000000000000000000000000000001E
:1002E000000000000000000000001E081F08200899
:1002F00021082208000000000000000000000000AB
:1003000000000000000000000100000000000000EC
:1003100000000000000000000000000000000000DD
:1003200000000000230824082508260827080000EC
:1003300000000000000000000000000000000000BD
:1003400000000000000000000000000000000000AD
:10035000000000001003500052004F004400550000
:100360004300540000000E037400730068006F0027
:100370007200740000000403090409023B0002013A
:1003800000A0FA0904000001030101000921110184
:1003900000012240000705810308000A090401004A
:1003A000010300000009211101000122810007055D
:1003B000820320000A12011001000000084D44369B
:1003C0003401000102000105010902A101850209B1
:1003D00001A10005091901290515002501950575DB
:1003E000018102950175038101050109300931156B
:1003F00081257F95027508810609381581257F952D
:100400000175088106050C0A38021581257F9501C2
:1004100075088106C0C005010980A1018503190185
:100420002AB700150126B700950175108100C00597
:100430000C0901A101850419012AA002150126A0B9
:1004400002950175108100C005010906A10105078B
:1004500019E029E71500250195087501810295012C
:10046000750881010507190029FF150026FF009571
:100470000675088100050819012905950575019182
:1004800002950175039101C011241FBECFEFDAE080
:10049000DEBFCDBF04B603FE27C0809176029091E7
:1004A0007702A0917802B09179028730904BA740F3
:1004B000B04BD1F41092760210927702109278022B
:1004C0001092790214BE84B7877F84BF0FB6F89468
:1004D000A895809160008861809360001092600010
:1004E0000FBEE0E0F8E3099511E0A0E0B1E0E4E23E
:1004F000F8E402C005900D92A839B107D9F722E0BF
:10050000A8E9B1E001C01D92A637B207E1F70E9449
:100510004E1E0C9410240C9400000C94640581E091
:10052000089581E008950C94910208950C94950229
:100530001F93CF93DF9300D000D01F92CDB7DEB7CB
:1005400049835A836B833091BC0189819A8131112F
:1005500014C0662359F0222349F00E941117182F66
:10056000682F89819A810E94B81603C00E94E41600
:10057000182F69817A81812F04C00E941117698127
:100580007A810F900F900F900F900F90DF91CF9185
:100590001F910C944A03FC01262F408151816281F6
:1005A000738184810C949802CF93DF93EC0160E017
:1005B0000E94CB02BE01DF91CF910C9496020E9463
:1005C0004318811102C00E94EA180C948D020C9409
:1005D000620508950E948A110E94E9022FEF84E3C8
:1005E0009CE0215080409040E1F700C000000C9456
:1005F000081A0F931F93CF93DF93EC0161E00E94E1
:10060000CB028C01BE010E949302882349F1BE01F6
:10061000C8010E949109882319F1BE01C8010E94F6
:10062000E3098823E9F0BE01C8010E940E0B88236C
:10063000B9F08A81882369F001158CE5180731F03B
:100640000F3D1C4531F40E94EA180AC00E94EA02DC
:1006500007C0CE01DF91CF911F910F910C948F02B3
:1006600080E0DF91CF911F910F91089508950C9430
:10067000360381E008950C943903CF93C82F0E946C
:1006800037038C2F0E943B03CF91089580E090E0C8
:10069000089508952CE3829FC0011124FC0126E0F7
:1006A000729FE00DF11D1124E60FF11DEE0FFF1FEB
:1006B000E450FF4F859194910895880F991FFC0194
:1006C000EC5AFC4F859194910895CF93DF930E944B
:1006D0004A030E947D04EC018115904508F041C059
:1006E000C11580E4D80708F0D1C0C83ED10510F587
:1006F000C03ED10508F0FDC0C83AD10578F4C53A2E
:10070000D10508F0A2C0C130D10509F4F2C008F447
:10071000EEC0C430D10508F0ECC0E9C0CF3BD10534
:1007200008F49BC0C03CD10508F4E1C0CE01805C58
:1007300091099EC0C11590E2D90758F4C11521E076
:10074000D20708F0D6C0C03FD10508F4D0C0D065AC
:10075000D0C0C11580E3D80708F08EC0CE019F70CD
:1007600087C0C11595E5D90708F043C0C11524E538
:10077000D20708F0A2C0C11582E5D80708F5C11557
:1007800091E5D90708F085C0CE0174E0969587956C
:100790007A95E1F783709C2F937021E030E002C0DE
:1007A000220F331F9A95E2F73C68382BCF70C6951D
:1007B000C69580E2C89FE0011124C22BD32B99C0BB
:1007C0009E01237033278C2F86958695C115D345BE
:1007D00008F064C0C1E0D0E002C0CC0FDD1F2A9554
:1007E000E2F720E2829FC0011124C82BD92BDC68DC
:1007F00080C0C11529E5D207A0F4C11588E5D80746
:1008000008F060C0C11596E5D90708F070C08C2FBC
:100810000E9411058F71C82FD0E0DC2FCC27D06249
:1008200068C0C1152AE5D20708F451C0CE01905620
:100830008115904208F05BC08D2F8F710E941105C9
:10084000DD27D0628F71D82B54C0C55AD0E0C65B6B
:10085000DE4FC881D0E0D0644CC0C85AD0E0CC0F85
:10086000DD1FC45EDE4F0990D881C02DD46441C025
:100870000E945D03EC013DC0CE019927D3FF03C068
:10088000EC01D86C36C0EC01D06C33C0DF70D06A9C
:1008900030C0DC2FCC27C16FD06A2BC0C1E0D0E0C4
:1008A00002C0CC0FDD1F2A95E2F720E2829FC00133
:1008B0001124C82BD92BDA681CC0DC2FCC27C46FBD
:1008C000D06A17C0DC2FCC27C06FD06A12C08C2F23
:1008D0008F700E94110594E0D695C7959A95E1F71F
:1008E000CF70D0E0DC2FCC27D069C82B02C0C0E08D
:1008F000D0E0CE01DF91CF9108958238910569F162
:10090000B0F48133910509F46DC048F48932910542
:1009100009F463C08A32910509F469C008958533EA
:10092000910509F455C089339105B9F00895833EC6
:10093000910569F138F4803E9105B1F0823E910550
:1009400009F10895863E9105A9F1873E9105B9F117
:10095000843E910509F064C023C02091670220FD08
:100960004FC021FD4DC008958091670280FD44C0B5
:100970008091680280FF44C08091670284FD42C07C
:1009800083EE4DC08091670282FF38C0F5CF809121
:10099000670282FD33C08091680280FD31C0ECCFD8
:1009A0008091680281FF32C08091670284FD2AC075
:1009B00087EE35C08091670283FF26C0F5CF809116
:1009C000670283FD21C08091680281FD1FC0ECCFCA
:1009D0008091670285FD1CC01DC08091670285FD66
:1009E00019C016C08091670286FD16C017C080919D
:1009F000670286FD13C010C089E311C082EE0FC0EC
:100A000080EE0DC080E00BC086EE09C084EE07C00A
:100A100089E205C085E303C08AE201C081E390E07A
:100A200008959091670292FF0DC0282F28712830F9
:100A300019F4877F846006C0282F2471243011F4B4
:100A40008B7F886093FF0DC0282F2871283119F4FF
:100A5000877E846106C0282F2471243111F48B7E97
:100A600088612091680220FF0DC0382F387138301E
:100A700019F4877F816006C0382F3171313011F44D
:100A80008E7F886021FF0DC0282F2871283119F42E
:100A9000877E816106C0282F2171213111F48E7E5D
:100AA000886194FD877E0895E82FF0E0E95AFD4FB4
:100AB00080810895089580EA8A95F1F70895089550
:100AC0000C945F050C9460050C945F05F894E82F76
:100AD000E295EF70F0E031A1282F2F7081E090E0D7
:100AE00001C0880F2A95EAF7982F9095932391A338
:100AF00092A1892B82A37894089508950F931F9350
:100B0000CF93DF930E94CB0680910001809100017A
:100B1000811102C095E001C090E09093620285E0EF
:100B2000891B8093610287EF0E94660581E30E9422
:100B3000660583E30E94660582E30E94660586E3FC
:100B40000E946605CDE4D1E003E511E089910E94A1
:100B500066050C171D07D1F7EDE4F2E0A7E5B2E05A
:100B600011921D9282E0E735F807D1F785E00E94E7
:100B700075060E94DF02DF91CF911F910F910C94B7
:100B8000D5060E94AC06882309F18091610290E0AD
:100B9000895A9D4F0E94E806811114C080919801E6
:100BA0008F5F80939801863078F0E0916102F0E0E9
:100BB000E95AFD4F80E090E0119201968530910551
:100BC000D9F702C0109298010C94E702809162025A
:100BD00090E0895A9D4F0E9403070C947D058F92E7
:100BE0009F92AF92BF92CF92DF92EF92FF920F93BC
:100BF0001F93CF93DF9383E5A82E81E0B82ECDE439
:100C0000D2E098E5E92E91E0F92E912C01E010E078
:100C10006501F5018081F894E82FE295EF70F0E02E
:100C200021A18F70A80102C0440F551F8A95E2F7D9
:100C3000CA01922F982B91A392A18095892382A318
:100C400078940E945B05EDE4F1E020E030E0812C37
:100C50004191A42FA295AF70B0E090968C9190E056
:100C60004F7002C0959587954A95E2F780FD07C0C1
:100C7000802F022E01C0880F0A94EAF701C080E09D
:100C8000882A2F5F3F4F2630310511F75FEFA51AF5
:100C9000B50AF60180810E9466058881881619F0E0
:100CA000888281E001C080E0982A2196EA14FB0442
:100CB00009F0AECF6091620270E0695A7D4F292D34
:100CC00045E08DE492E00E9476060E94C105892DE0
:100CD000DF91CF911F910F91FF90EF90DF90CF9018
:100CE000BF90AF909F908F9008950895FF920F93BB
:100CF0001F93CF93DF938C01F62ED72FC42F22237F
:100D000049F081E080939B010E94C71990939A015A
:100D10008093990180919B018823C1F08091990172
:100D200090919A010E94D319069780F0EF2DFD2F24
:100D3000D8014C2F50E0CD01801B910B84179507F3
:100D40001CF48D918193F7CF10929B01DF91CF918D
:100D50001F910F91FF90089580919C01811112C005
:100D60008091D80080618093D8008AE18A95F1F75C
:100D700000C08091D90080FD02C082E001C081E006
:100D800080939C0181E090919C01913009F080E07A
:100D900008950C94AC060E94C906809300010E943D
:100DA000AC0681110C94DC0608950E94AC068111FA
:100DB00002C00C94E206089561E070E081E091E0E9
:100DC0000C949A0B61E070E081E091E00C94A10B2F
:100DD000CF93DF93D82FC92F0E94390C892B79F438
:100DE000ED2FFC2F80E090E0DC01A256BE4F2C914D
:100DF0002193019685309105B9F781E001C080E02B
:100E0000DF91CF91089520E030E0FC014191CF01C6
:100E1000F901E256FE4F40832F5F3F4F25303105E9
:100E2000A1F70895833081F128F4813059F08230A0
:100E3000D1F00895853009F449C0B8F1863009F43D
:100E400056C0089580913502262F30E0280F311DBD
:100E50002F3F310524F4680F6093350208958FEF1A
:100E600080933502089580911001262F30E0280FDD
:100E7000311D2F3F310524F4680F60931001089550
:100E80008FEF80931001089580910F01262F30E09D
:100E9000280F311D2F3F310524F4680F60930F0197
:100EA00008958FEF80930F01089580910E01262FF2
:100EB00030E0280F311D2F3F310524F4680F609377
:100EC0000E0108958FEF80930E01089580910C011B
:100ED000262F30E0280F311D2F3F310524F4680FF5
:100EE00060930C0108958FEF80930C010895809119
:100EF0000B01262F30E0280F311D2F3F310524F440
:100F0000680F60930B0108958FEF80930B01089594
:100F1000833011F128F4813049F0823091F0089546
:100F2000853081F120F18630C1F10895809135023C
:100F3000681720F4861B80933502089510923502BD
:100F4000089580911001681720F4861B809310018A
:100F5000089510921001089580910F01681720F4F0
:100F6000861B80930F01089510920F0108958091C0
:100F70000E01681720F4861B80930E0108951092CD
:100F80000E01089580910C01681720F4861B809350
:100F90000C01089510920C01089580910B016817BF
:100FA00020F4861B80930B01089510920B01089585
:100FB0000F931F9341E050E060E070E08A019B01D5
:100FC00004C0000F111F221F331F8A95D2F7C901D9
:100FD000B8010E94BA151F910F910C948A118B31A0
:100FE00009F468C058F58B3009F486C078F486306F
:100FF00009F445C020F4853009F44BC07FC0873028
:1010000009F44AC0883009F477C078C0803109F407
:1010100064C068F48E3009F071C08091320282FBA6
:10102000222720F991E0922790FB82F94CC086316B
:1010300009F462C0893109F45FC060C08A32E1F00E
:1010400060F4873209F455C028F48E3108F456C094
:101050008D5150C08932E9F051C0833450F48A3345
:1010600008F045C0853309F444C0883309F444C00E
:1010700045C08334F1F142C00E94EA183DC080911E
:101080003202817F8E7F8093320281E08093A401BF
:1010900008950E94EA0230C080913202982F909504
:1010A000917090FB80F980933202911125C0897F65
:1010B000877F10C08091320281FB222720F991E0C6
:1010C000922790FB81F9809332029923A9F08091B5
:1010D00032028160809332020FC08091320283FB22
:1010E000222720F991E0922790FB83F9ECCF8953D6
:1010F00001C080E00E94D80781E0089580E0089553
:1011000080E008950C9480088E518A3030F4E82FE6
:10111000F0E0E35AFE4F8081089580E00895CF9378
:10112000C82F8091A401813051F018F0823099F1DC
:101130007BC00E949217823209F078C004C00E94DE
:101140009217823261F48C2F0E948208811104C0B0
:101150008C2F0E94EF071DC081E090E01AC08C2FF9
:101160000E948008811114C0C43179F048F4CB305A
:1011700079F0C03109F05EC082E08093A40108C01C
:10118000C93219F0C83321F055C01092A40152C0E1
:1011900081E0817051C0C93279F108F5C43161F143
:1011A000A0F4C73009F044C01092350284E1809366
:1011B0001001C0930F018CE380930E0188E08093AF
:1011C0000C0188E280930B0133C082EE8C0F8630D5
:1011D00078F58C2F0E9484088093A30129C0CE3417
:1011E000E9F020F4CB3421F56AE013C0C13579F081
:1011F000C235F1F461E00DC08091A301882319F09C
:101200001092A30115C081E08093A40115C061E094
:1012100006C08091A3010E9412070AC06AE0809173
:10122000A3010E94880704C01092A40180E004C0BA
:1012300081E002C080E0ADCFCF9108950F931F935E
:10124000CF93DF93C42FD22FFC0182818823C9F072
:101250004093A7010E94C7199093A6018093A5010E
:1012600080E28C0F883008F057C0C77081E001C061
:10127000880FCA95EAF7DF91CF911F910F910C94D7
:10128000FA0E8091A701481330C08091A50190917A
:10129000A6010E94D319883C910538F510E21D0F74
:1012A000CD17B9F080E28C0F883040F4C77081E030
:1012B00001C0880FCA95EAF70E94010F183028F57F
:1012C00081E09D2F977001C0880F9A95EAF70E94E0
:1012D000FA0E802F0E94E70E1830F0F4D77081E0EC
:1012E00001C0880FDA95EAF70AC080E28C0F8830D7
:1012F00098F4C77081E001C0880FCA95EAF7DF91C2
:10130000CF911F910F910C94010F802FDF91CF91FE
:101310001F910F910C94E70EDF91CF911F910F91C8
:1013200008950F939C01CB01243F4CE5340731F124
:1013300088F4293DFCE53F07D9F02A3D4CE5340708
:1013400079F1283D3C45A9F506E221EE41EE68ED34
:101350007CE52BC0263FFCE53F07E1F0A8F0273FE6
:101360003C4539F507E225EE46EE67EF7CE51DC00A
:1013700007E225EE45EE69ED7CE517C006E221EEB9
:1013800040EE64EF7CE511C007E225EE44EE65EF28
:101390007CE50BC006E221EE42EE66EF7CE505C07F
:1013A00008E221E045EE6AED7CE50E941E0980E03E
:1013B00008C0FC018281882319F01092A70101C0A6
:1013C00081E00F910895CF93DF93EC01FB018281BF
:1013D000882309F41FC1C230FCE5DF0708F41BC1F4
:1013E000C6319CE5D90738F09E012B5F3C4529307A
:1013F000310508F010C10E9456189093680280933E
:101400006702C031ECE5DE0709F4C3C008F041C053
:10141000C8308CE5D80709F49AC0F0F4C430ECE584
:10142000DE0709F487C068F4C2308CE5D80709F4F8
:1014300077C0C330DC4509F0E3C080916702826069
:1014400076C0C630ECE5DE0709F46EC008F07BC05C
:101450008091670288606BC0CC308CE5D80709F4B6
:1014600085C068F4CA30ECE5DE0709F474C008F002
:1014700079C00E948A1180916702806858C0CE307E
:101480008CE5D80709F476C008F07FC08091670228
:101490008BC0CC3FECE5DE0709F44FC018F5C33133
:1014A0008CE5D80709F47DC078F4C131ECE5DE079E
:1014B00009F473C0C231DC4509F0A2C00E948A1150
:1014C000809167028F7733C0C5318CE5D80709F466
:1014D00072C008F486C0CB3FDC4509F091C0809112
:1014E00068023EC0C115FDE5DF0709F45FC058F48E
:1014F000CE3F9CE5D90709F444C008F43FC0809171
:10150000680282602DC0C230FDE5DF0709F475C0B6
:1015100008F45DC0C330DD4509F072C080E06EC0E4
:1015200080916702816003C080916702806180932F
:10153000670266C08091670211C080916802826074
:10154000809368025DC0809167028062F0CF8091D5
:1015500067028064ECCF8091670288608460E7CF87
:101560008160EECF809167028E7FE1CF809167022C
:101570008D7FDDCF80916702877FD9CF8091680210
:1015800018C0809168028D7FDBCF809167028F7ECB
:10159000CECF809167028F7DCACF809167028F7B0B
:1015A000C6CF80916702877F8B7FC1CF8091680211
:1015B0008D7F8E7FC5CF8091670282FB222720F925
:1015C00091E0922790FB82F990FB83F9B0CF809154
:1015D0006802982F909591708E7F892B90FB81F9EE
:1015E000AFCF0E948A118091670287FB222720F9E2
:1015F00091E0922790FB87F99ACF81E00E94EC1846
:1016000080916702909168020E9467180E948A1177
:1016100080E001C081E0DF91CF910895CF93DF9307
:1016200086319C4541F5EB010E949217982F8A81E3
:101630002091090130910A01882379F09A7A81E09A
:1016400009F480E08093A801911102C069E201C011
:1016500065E3C9010E9433190AC08091A801811174
:1016600002C069E201C065E3C9010E9435190E9408
:10167000E01780E001C081E0DF91CF9108958EE115
:10168000489B02C08150E1F7489BFECF08955898CF
:1016900080E28A95F1F7589A0895FC012AE02A958C
:1016A000F1F728E090E080E031E040E14A95F1F781
:1016B000880F489B02C08160932700C0000040E172
:1016C0004A95F1F7215089F720E12A95F1F729B1E0
:1016D00000C0000030E13A95F1F721709227208197
:1016E000920F90830895EF92FF920F931F93CF93E1
:1016F000DF931F92CDB7DEB719828C017C01E60E15
:10170000F11C0E151F0551F00E943F0BCE010196F2
:101710000E944D0BF80181938F01F3CF81E09981F5
:10172000911180E00F90DF91CF911F910F91FF9069
:10173000EF9008959093AA018093A901509A589A26
:1017400008959093AA018093A9015098589AE89A15
:10175000E9E6F0E080818C7F80830895615091E01C
:1017600001C0990F6A95EAF720E031E0992361F012
:10177000492F482319F0589A232701C0589840E26E
:101780004A95F1F79695F2CF222311F0589A01C0AD
:10179000589880E28A95F1F758980895FF920F9330
:1017A0001F93CF93DF93EC018C01060F111DC0171F
:1017B000D10741F0F9900E94470B68E08F2D0E94FD
:1017C000AE0BF5CFDF91CF911F910F91FF90089550
:1017D0001F920F920FB60F9211242F933F934F93A6
:1017E0005F936F937F938F939F93AF93BF93CF93A9
:1017F000DF93EF93FF935898509AC091A901D0912D
:10180000AA016D81662321F08E819F810E94CE0BFB
:101810000E94470B80E18A95F1F758985098589AA2
:1018200080E18A95F1F76A81662351F08B819C8172
:101830000E94730BE881F981811104C082E003C02A
:10184000E881F98188E080830E943F0BFF91EF914E
:10185000DF91CF91BF91AF919F918F917F916F91C8
:101860005F914F913F912F910F900FBE0F901F905E
:101870001895CF93DF93C091A901D091AA01F89454
:10188000509A589885E08A95F1F700005098589A38
:1018900080E28A95F1F7489B0AC0509A589AE881ED
:1018A000F98181E08083789481E090E02CC06D81A3
:1018B000662381F08E819F810E94730B81110AC083
:1018C000509A589AE881F98182E08083789482E086
:1018D00090E019C00E943F0B80E28A95F1F758987A
:1018E000509A80E18A95F1F76A81662321F08B8115
:1018F0009C810E94CE0B0E94470BE881F9811082E7
:10190000789480E090E0DF91CF9108959093B001BA
:101910008093AF010895E091AF01F091B00130974D
:1019200021F00190F081E02D099480E00895E0918C
:10193000AF01F091B001309721F00280F381E02DEA
:1019400009940895E091AF01F091B001309739F01A
:1019500022E0DC012C930480F581E02D09940895A8
:101960002091AD013091AE012817390771F09093A5
:10197000AE018093AD01E091AF01F091B0013097DD
:1019800021F00680F781E02D099408952091AB01A4
:101990003091AC012817390771F09093AC01809316
:1019A000AB01E091AF01F091B001309721F00084DC
:1019B000F185E02D0994089585B7806885BF85B7C6
:1019C000806885BF08950C94AC0608950C94E50CCE
:1019D0000C94E50C0C94E80C0C94E50C0C94EC0CB9
:1019E0000C94E50C0E94DC0C0E94F00C0C94EE0CA4
:1019F0000E94BE190E947E050E94191A0C94EA0CDE
:101A0000AF92BF92CF92DF92EF92FF920F931F930C
:101A1000CF93DF93CDB7DEB72A970FB6F894DEBF2A
:101A20000FBECDBF0E94E60C0E94E50C0E94EF05A0
:101A30000E94E30C811111C08FEF89838A831B827E
:101A40000E94C7198160782F9D838C8349815A81B8
:101A50006B818D810E949C0D40C082EBA82E81E09D
:101A6000B82E00E010E0C02E802F0E945405E82E12
:101A7000F501D1905F01D82631F40F5F1F4F0A3076
:101A8000110589F7D9CF8091320281FD0E945A0554
:101A900080E0FF24F3949D2D9F21D1F08E83CF828F
:101AA000EF2081E009F480E088870E94C7198160F7
:101AB000782F9A8789874E815F8168858A850E9401
:101AC0009C0DF801EE54FE4F8081F826F08205C08F
:101AD0008F5FFF0C8630F9F6D0CF0E94C81B0E94A2
:101AE0008B0C9091B1018917B1F00E948B0C8093FF
:101AF000B1012A960FB6F894DEBF0FBECDBFDF91BD
:101B0000CF911F910F91FF90EF90DF90CF90BF90FA
:101B1000AF900C943D032A960FB6F894DEBF0FBE2B
:101B2000CDBFDF91CF911F910F91FF90EF90DF908C
:101B3000CF90BF90AF900895CF93DF93CDB7DEB72E
:101B40002B970FB6F894DEBF0FBECDBF4F835887DB
:101B500069877A878B87DE01119686E0FD011192F5
:101B60008A95E9F785E0FE01379601900D928A95F6
:101B7000E1F749815A816B817C818D819E810E9430
:101B80007D142B960FB6F894DEBF0FBECDBFDF914C
:101B9000CF910895FC01808191810E94531708958F
:101BA000CF93882309F4A9C0C82F8238C1F40E94BA
:101BB0008B0C81FDA2C069E38091090190910A011B
:101BC0000E9433190E94E0172FEF81EE94E021501C
:101BD00080409040E1F700C0000069E319C08338FD
:101BE00001F50E948B0C80FD88C063E5809109019E
:101BF00090910A010E9433190E94E0172FEF81EEA5
:101C000094E0215080409040E1F700C0000063E57F
:101C10008091090190910A010E943519CF910C948D
:101C2000E0178438C1F40E948B0C82FD66C067E423
:101C30008091090190910A010E9433190E94E017D6
:101C40002FEF81EE94E0215080409040E1F700C0FA
:101C5000000067E4DDCF8CEF8C0F813AF8F48C2F15
:101C60000E948F08811149C06C2F809109019091C9
:101C70000A010E94FD18882349F06C2F8091090108
:101C800090910A010E9435190E94E0176C2F8091F3
:101C9000090190910A010E943319C0CF80E28C0F94
:101CA000883048F4C77081E001C0880FCA95EAF710
:101CB0000E949517B3CFEBE5EC0FE33040F4F0E072
:101CC000EB56FE4F808190E0CF910C94B00CE8E58C
:101CD000EC0FE73150F4F0E0EE0FFF1FE959FE4F33
:101CE00080819181CF910C94C60CC03F30F08C2F35
:101CF0000E94BD1ACF910C94AA1BCF9108958823FE
:101D000009F464C0823879F40E948B0C81FF5EC0B4
:101D100069E38091090190910A010E9433190E94A0
:101D2000E01769E310C08338B1F40E948B0C80FF88
:101D30004DC063E58091090190910A010E94331919
:101D40000E94E01763E58091090190910A010E94C9
:101D500035190C94E017843879F40E948B0C82FFBB
:101D600035C067E48091090190910A010E943319FE
:101D70000E94E01767E4E7CF9CEF980F913A10F4C8
:101D8000682FE1CF90E2980F983050F4877091E07F
:101D900001C0990F8A95EAF7892F0E949B17D9CF26
:101DA0009BE5980F933020F480E090E00C94B00C09
:101DB00098E5980F973120F480E090E00C94C60CE1
:101DC000803F20F00E94251B0C94AA1B0895CF93FE
:101DD000C82F0E94D00DC93349F42FEF87EE93E04E
:101DE000215080409040E1F700C000008C2FCF913F
:101DF0000C947F0E882321F00E9495170C94E01715
:101E00000895882321F00E949B170C94E0170895F1
:101E1000CF92DF92EF92FF920F931F93CF93DF93B6
:101E20007C01062FC72FFC01158112951F70D281EE
:101E3000D1110E94B2170E948B17882399F0DD23DD
:101E400089F08C2F807F803421F080E2800F8830F1
:101E500048F082E00E942A180E948B1791E0D82E49
:101E6000D92601C0D12CCC2EC2948FE0C8228C2D53
:101E700090E0FC01EA5AFF4F0C94B4238C2F807F32
:101E8000CF70882311F0C295C07FDD2399F0CC2359
:101E900009F48DC180E2800F883010F0011104C078
:101EA0008C2F0E94951703C08C2F0E94A5170E94AB
:101EB000E0177DC1802F0E947F0ECC2309F49CC1C6
:101EC00080E2800F883010F0011104C08C2F0E9436
:101ED0009B1703C08C2F0E94AB170E94E0178CC188
:101EE0008C2F807FCF70803211F0C295C07F00238D
:101EF00019F00130C9F022C0DD2371F0112341F047
:101F0000113031F40E94C5178C2B0E94CD1774C17B
:101F10000E94C5178C2B1DC0112319F0113009F434
:101F20006BC10E94D61725C0DD2321F0163008F0C2
:101F300063C10EC0153008F05FC11BC0DD2361F026
:101F4000112331F0F701858180FF31C18F708583C6
:101F50008C2F0E94FA0E50C1112359F0093309F059
:101F600037C1FFEF27EE83E0F15020408040E1F7DA
:101F70002DC18C2F0E94010F3FC18C2F8695869515
:101F8000837019F0813061F037C1DD2321F0802F9B
:101F90009C2F937002C080E090E00E94B00C34C18E
:101FA000DD2321F0802F9C2F937002C080E090E011
:101FB0000E94C60C29C1802FDD2319F00E94BD1A92
:101FC00002C00E94251B0E94AA1B1EC18C2F837079
:101FD00009F045C0D11114C1402F42954695477074
:101FE000440F440F602F6F70862F90E0A0E0B0E0A8
:101FF000042E04C0880F991FAA1FBB1F0A94D2F792
:1020000004FF10C00FE010E020E030E004C0000F3B
:10201000111F221F331F4A95D2F700951095209566
:10202000309503C000E010E09801C695C695C370D6
:10203000BC01CD01602B712B822B932BC23049F058
:1020400058F4C13019F00E94CE15DAC00E94BC15B8
:10205000D7C00E94E015D4C00E94BA15D1C0DD23BC
:1020600019F08C2F817001C08695882309F4C8C0AF
:10207000402F429546954770440F440F602F6F7074
:10208000862F90E0A0E0B0E0042E04C0880F991FD6
:10209000AA1FBB1F0A94D2F704FF10C00FE010E084
:1020A00020E030E004C0000F111F221F331F4A95AB
:1020B000D2F7009510952095309503C000E010E010
:1020C0009801C695C695C370BC01CD01602B712BDC
:1020D000822B932BC23049F058F4C13019F00E9482
:1020E00093168EC00E9481168BC00E94A51688C0D0
:1020F0000E94F41585C0CF70DD2339F08C2F0E942B
:102100001A16802F0E94FA0E7BC0802F0E94010FAA
:102110008C2F0E943B1674C0023F01F128F4003F4F
:1021200041F0013FA1F03FC0033FF9F0043F39F116
:102130003AC0DD2341F0153008F05EC08C2F8F715E
:102140000E94601659C0163008F056C0F7CFDD2344
:1021500039F08C2F8F710E941A164EC0DD23C9F3FF
:102160008C2F8F710E943B1647C0DD2329F08C2FE6
:102170008F710E94051640C00E9400163DC0DD23ED
:1021800049F0CF718C2F0E941A1663E08C2F0E94A9
:10219000151832C081E00E942A18123068F182E0DE
:1021A0000E942A1829C0DD2331F0112391F2802FDB
:1021B0000E94D00D21C0112399F2093349F49FEFF9
:1021C000E7EEF3E09150E040F040E1F700C000009E
:1021D000802F0E947F0E10C04C2F4F70602FC701C0
:1021E0000E9446030E942B150FC04C2F4F70602F8A
:1021F000C7010E94490308C088EF8C0D843020F489
:102200000E948B0C0E943D03DD20C9F00E948717BD
:1022100080FD15C0F70112820E9481170E941A16D4
:10222000C7010E9440110E948117DF91CF911F9139
:102230000F91FF90EF90DF90CF900C943B16DF91C1
:10224000CF911F910F91FF90EF90DF90CF90089565
:102250000F931F93CF93DF93EC01688179818A817B
:102260000E945E178C010E94B7160E94A815B80143
:10227000CE010E94080FDF91CF911F910F91089519
:10228000CF93DF93EC01988189812B813C81232BB3
:1022900031F08F3F31F481E09F3F19F403C081E0BA
:1022A00001C080E080FD19C0CE010E94F9028111B9
:1022B0000CC00E948B17882381F08A81882369F0E3
:1022C00082E0DF91CF910C942A18CE010E94281150
:1022D000CE01DF91CF910C94D402DF91CF9108957C
:1022E0000E94B2170E94C2170E94E0170E94DB1CD6
:1022F0000E94AA1B80E090E00E94B00C80E090E079
:102300000C94C60C8091090190910A010E94371922
:102310000C9470110E94A2170C948211E92FE2957F
:10232000EF704E2F50E0FA013297EE30F105B0F425
:10233000EA59FF4F0C94B423803F91F018F4883E83
:1023400068F40EC0843F51F40BC0883E48F0813FD2
:1023500029F406C093FB882780F9089580E008954A
:1023600081E008950E9453170E948E110895CF9323
:10237000DF9300D000D01F92CDB7DEB70F900F9043
:102380000F900F900F90DF91CF910895CF93DF932F
:1023900000D000D000D0CDB7DEB726960FB6F894A7
:1023A000DEBF0FBECDBFDF91CF9108951F93CF93B6
:1023B000DF93C091BD0116E08091BE01C81799F06E
:1023C000D0E01C9FF0011D9FF00D1124E154FE4F41
:1023D0004081518162817381848195810E94C611FF
:1023E0002196C770E9CFDF91CF911F910895409159
:1023F000EF015091F0016091F1017091F201809133
:10240000F3019091F4010C94C6112091BD019091BB
:10241000BE0156E02917A9F030E0529FF001539F0A
:10242000F00D1124E154FE4F7181761306C07081C6
:10243000781303C07281741306C02F5F3F4F27705B
:10244000E9CF80E0089581E008950F931F93CF9323
:10245000DF938091F40182958F7009F05DC08091C7
:10246000F101882309F458C08091BD011091BE018B
:102470006091EF017091F001C091F201D091F301F0
:1024800091E06F3F09F090E0292F06E0811709F4F1
:1024900043C0209721F07F3F21F030E003C031E0BE
:1024A00001C0322F90E030FD34C0089FF001099F39
:1024B000F00D1124DF01A154BE4F11963C911197EC
:1024C000371327C03C91361324C012963C911297C3
:1024D00031111FC013964D915C9114974C1B5D0BED
:1024E000483C5105B0F48091F4018F708061809375
:1024F000F401EC53FE4F80818F70806180838FEEFA
:1025000091E00E944011DF91CF911F910F910C94A7
:10251000D61101968770BACFDF91CF911F910F919D
:1025200008958F929F92AF92BF92CF92DF92EF92D7
:10253000FF920F931F93CF93DF93CDB7DEB76197D1
:102540000FB6F894DEBF0FBECDBF8C0185E0F80159
:10255000DE011D9601900D928A95E1F7D801DC907D
:102560001196EC9011971296CC909091EF012091DA
:10257000F0014091F2015091F3014115510531F004
:102580002F3F31F481E09F3F19F403C081E001C087
:1025900080E080FD81C1F801838094808FEEA82EB9
:1025A00081E0B82EF090F101B401641B750BFF209F
:1025B00009F418C18091F401382F307F683C71050F
:1025C00008F0D1C031118AC0E21214C0D91212C071
:1025D000FC2CC1100FC08F7080618093F4010E94A9
:1025E000F711C5010E9440118091F401D8011596A0
:1025F0008C936FC18114910439F0BFEFEB1206C0C8
:1026000081E0DB1203C003C081E001C080E080FDF7
:1026100003C081E08C2502C080E090E080FF10C004
:102620004C2D6E2D8D2D0E940512882349F08FEEC2
:1026300091E00E944011EFEEF1E086E0DF01A4C0DE
:10264000892839F0BFEFEB1206C081E0DB1203C02E
:1026500003C081E001C080E080FD03C081E08C25E3
:1026600002C080E090E0E82FE170BE2E80FF2CC019
:102670004C2D6E2D8D2D0E940512F82E811124C037
:10268000DD86EE868D859E850E945317292F229523
:102690002F70223018F0243090F405C09F7059F04C
:1026A000811109C016C19F7031F0D80115969C9117
:1026B000907F09F40EC1805E883008F40AC1C80119
:1026C0000E944011FB2C05C1FC2CCC2009F401C157
:1026D0008091F40181608093F4015BC0E21206C036
:1026E000D91204C0C11002C0F801A0C0DD86EE8678
:1026F0008D859E850E94B211882379F1CC2069F1E5
:102700002091F401822F82958F7090E0029774F0EF
:102710008091EF019091F00198878F8319869B86B5
:102720008A862C87CE0107960E94401186E0F80128
:10273000AFEEB1E001900D928A95E1F70E9425126B
:102740000E94F7110DC0E21631F1DD86EE868D850F
:102750009E850E94B21181112DC0C8010E944011B6
:10276000FF24F394B6C03111EECF782D998A888A70
:102770004D2D5E2D6C2D89890E94B7118FEE91E051
:102780000E94401186E0D5011D928A95E9F70E94CA
:10279000F711F12C9EC0D912D8CFC110D6CFF801B5
:1027A0008583C8010E94401186E0D5011D928A955B
:1027B000E9F78FC0CC2089F22091F401822F829515
:1027C0008F7090E002970CF4B1CF8091EF0190915F
:1027D000F0019A8389831B829D828C822E83CE0195
:1027E0000196A2CF683C710508F047C0FC2CCC20B4
:1027F00009F4B3CFE21230C0D9122EC02091F401F7
:1028000020FD21C0822F82958F70482F50E0411506
:102810005105C9F0F80125834F30510541F08F5F14
:10282000982F9295907F822F8F70892B8583C80176
:102830000E94401186E0F801AFEEB1E001900D92E8
:102840008A95E1F744C086E0F801AFEEB1E001906F
:102850000D928A95E1F73DC0DD86EE868D859E85D9
:102860000E94B211811162CF8091F4018160809346
:10287000F401C8010E9440112CC0782D998A888AE1
:102880004D2D5E2D6C2D89890E94B71186E0D501F2
:102890001D928A95E9F71BC0CC2009F45ECFDD8636
:1028A000EE868D859E850E94B211F82E882309F44C
:1028B00054CF86E0F801AFEEB1E001900D928A9519
:1028C000E1F78FEE91E00E94CA0D0E9425120E944E
:1028D000F7118F2D61960FB6F894DEBF0FBECDBFF6
:1028E000DF91CF911F910F91FF90EF90DF90CF90EC
:1028F000BF90AF909F908F9008951F93CF93DF93D9
:10290000CDB7DEB72C970FB6F894DEBF0FBECDBFA4
:102910004F83588769877A878B879C87CE01079674
:102920000E9491128823D1F09F8188852A853B855A
:10293000232B31F08F3F31F481E09F3F19F403C026
:1029400081E001C080E080FD47C04F8158856985E6
:102950007A858B859C850E94C6113EC086E0FE016B
:102960003796DE01119601900D928A95E1F7FF816D
:10297000E8856A857B856115710531F0EF3F31F49B
:1029800081E0FF3F19F403C081E001C080E080FDD9
:1029900023C02091BE0130E0C901019687709927BC
:1029A0004091BD0150E084179507F1F1F983EA8366
:1029B0007D836C8396E0929FD001939FB00D11248C
:1029C000A154BE4FFE01319601900D929A95E1F708
:1029D0008093BE010E94D61116E08091BD019091B6
:1029E000BE01891771F1189FC001112481549E4FB7
:1029F0000E949112882329F1E091BD011E9FF001F0
:102A00001124E154FE4F40815181628173818481A0
:102A100095810E94C6118091BD0190E0019687705A
:102A200099278093BD01D9CF0E948A111092BE01CF
:102A30001092BD01EFEEF1E086E0DF011D928A9574
:102A4000E9F72C960FB6F894DEBF0FBECDBFDF912D
:102A5000CF911F910895EF92FF920F931F93CF9301
:102A6000DF938C01892B09F46CC0F12CEE24E394E4
:102A7000E8012196F8018491843740F4843008F00D
:102A800051C0813081F0823019F15BC0853709F483
:102A900044C0A8F19CE7980F903708F052C08F7798
:102AA0000E947F0E41C00E5F1F4FFE01849190E295
:102AB000980F983050F48770FE2D01C0FF0F8A9553
:102AC000EAF78F2F0E94B51714C00E94D00D2DC0B9
:102AD0000E5F1F4FFE01849190E2980F983060F4D2
:102AE0008770FE2D01C0FF0F8A95EAF78F2F0E9495
:102AF000BB170E94E01719C00E947F0E16C00E5F20
:102B00001F4FFE01C491CC2381F08FE99FE0019714
:102B1000F1F700C00000C150F6CF0E5F1F4FFE015D
:102B2000F49003C00E94D00D8E018F2D882309F4EC
:102B30009FCFEFE9FFE03197F1F700C0000081502F
:102B4000F5CFDF91CF911F910F91FF90EF900895F6
:102B5000089508950C94A9150C94AA150E94AC151B
:102B600060932102709322028093230290932402A7
:102B70000C9470110C94AE150F931F9300912102C9
:102B8000109122022091230230912402602B712B9C
:102B9000822B932B1F910F910C94AE150F931F93C3
:102BA00000912102109122022091230230912402EF
:102BB00060237123822393231F910F910C94AE15F0
:102BC0000F931F9300912102109122022091230262
:102BD0003091240260277127822793271F910F913C
:102BE0000C94AE150C94A9150E94F21560931D0269
:102BF00070931E0280931F02909320020C94701118
:102C000060E070E0CB010C94F4150F931F9341E04A
:102C100050E060E070E08A019B0104C0000F111FCA
:102C2000221F331F8A95D2F7C901B8011F910F9156
:102C30000C94F4150F931F9341E050E060E070E0B6
:102C400004C0440F551F661F771F8A95D2F78091E5
:102C50001D0290911E02A0911F02B09120028A01D4
:102C60009B01082B192B2A2B3B2BC901B8011F9163
:102C70000F910C94F4150F931F9341E050E060E026
:102C800070E004C0440F551F661F771F8A95D2F766
:102C9000409550956095709580911D0290911E020F
:102CA000A0911F02B09120028A019B0108231923E1
:102CB0002A233B23C901B8011F910F910C94F415ED
:102CC0000F931F9341E050E060E070E004C0440FB8
:102CD000551F661F771F8A95D2F780911D0290912C
:102CE0001E02A0911F02B09120028A019B010827B9
:102CF00019272A273B27C901B8011F910F910C946E
:102D0000F4150F931F9300911D0210911E02209144
:102D10001F0230912002602B712B822B932B1F916D
:102D20000F910C94F4150F931F9300911D021091B5
:102D30001E0220911F023091200260237123822302
:102D400093231F910F910C94F4150F931F930091EF
:102D50001D0210911E0220911F0230912002602757
:102D60007127822793271F910F910C94F4150895D2
:102D7000292F220F920F990F890FE82FE695E695DC
:102D8000E695877051E001C0550F8A95EAF785E016
:102D9000E89FF0011124EB50FE4F20E030E070E09E
:102DA0004081CB01022E02C0969587950A94E2F7E6
:102DB0008170819584278523842781932F5F3F4FDE
:102DC0002530310569F70895292F220F920F990FA9
:102DD000890F682F669566956695982F977085E0A0
:102DE000689FB001112440E050E080E0FB01E40F57
:102DF000F51FEB50FE4F208130E0092E02C03695C2
:102E000027950A94E2F721703327042E01C0220F80
:102E10000A94EAF7822B4F5F5F4F4530510531F737
:102E20000895BF92CF92DF92EF92FF920F931F937C
:102E3000CF93DF938C01C0901D02D0901E02E090D2
:102E40001F02F09020028091210290912202A09115
:102E50002302B0912402C82AD92AEA2AFB2ACFE108
:102E6000D0E0D701C6010C2E04C0B695A795979562
:102E700087950A94D2F780FD04C0219790F7B12C72
:102E800007C0BC2EB8018C2F0E9465030197A9F3DF
:102E90008B2DDF91CF911F910F91FF90EF90DF90DD
:102EA000CF90BF900895CF93DF93EC010E9411174C
:102EB000BE010E946503DF91CF9108951F93CF93C8
:102EC000DF93EB019091BC01992321F0CB010E948B
:102ED000531713C0882349F0CB010E941117182FF4
:102EE000682FCE010E94B81604C0CB010E94E416E0
:102EF000182FBE01812F0E946503DF91CF911F9192
:102F000008958091250285958595859508958091F0
:102F100025028770089590912502977081E009F449
:102F200080E0089580913102089590913102892BBB
:102F30008093310208958095909131028923809386
:102F40003102089510923102089590913002892B38
:102F50008093300208958095909130028923809368
:102F60003002089510923002089590912F02892B1B
:102F700080932F020895809590912F02892380934A
:102F80002F02089510922F0208958091260208952D
:102F900008950C94C8170C94C9179091260298179D
:102FA00021F0809326020C94CB170895809126027D
:102FB000882329F01092260280E00C94CB17089504
:102FC000E0910901F0910A01809131028083E09142
:102FD0000901F0910A01908180913002892B808350
:102FE000E0910901F0910A01908180912F02892BD3
:102FF000808380912602882381F0E0910901F0917D
:103000000A019081892B80838091090190910A01A6
:103010000E94F11881110E94D617809109019091A8
:103020000A010C94970C0C94C81798E0899F9001A2
:103030001124262B209325020E941A168091250226
:103040008595859585950C9413181092250280E03E
:103050000C941318209125028095822380932502D9
:10306000982F977079F430E0482F082E000C550BFC
:103070002417350739F08595859585950E943B166F
:103080000C942518089580E090E00E94D62321E05A
:103090008C3E9E4F09F020E0822F089582E090E060
:1030A0000C94CE2383E090E00C94CE23CF9384E065
:1030B00090E00E94CE23C82F81E290E00E94CE23B0
:1030C0002C2F30E0A901582BCA01CF910895CF933E
:1030D000C92F682F84E090E00E94DC236C2F81E2EE
:1030E00090E0CF910C94DC23AB01BC018FE090E029
:1030F0000C94EE23AB01BC0183E190E00C94EE2331
:1031000060E070E0CB010C947A1860E070E0CB01D5
:103110000E9474180C9480186CEE7EEF80E090E0B2
:103120000E94FA2360E082E090E00E94DC2360E0ED
:1031300083E090E00E94DC23109221021092220290
:10314000109223021092240260E084E090E00E943A
:10315000DC2360E081E290E00E94DC2360E085E017
:1031600090E00E94DC2360E086E090E00E94DC2397
:103170006FEF87E090E00E94DC2340E050E0BA016E
:1031800088E090E00E94EE2360E08DE090E00E94F5
:10319000DC2340E050E0BA0188E190E00E94EE2399
:1031A00060E087E190E00E94DC2340E050E0BA015B
:1031B0008CE190E00E94EE2360E080E290E00E94CB
:1031C000DC2340E050E0BA0188E190E00E94EE2369
:1031D0000C9485180C948C18682F8EE090E00C9459
:1031E000DC23FC01329697E080E0915029F0219198
:1031F0002223D9F38F5FF9CF0895662349F0FC01AC
:10320000329608962191621729F0E817F907D1F74D
:1032100080E0089581E008959C01FC0132969FEFC3
:1032200080E04191461789F09F3F19F4411101C098
:10323000982F8F5F8630A9F79F3F39F0F901E90F8A
:10324000F11D97FDFA956283089508959C012A5F08
:103250003F4FFC014281461301C012820196821742
:103260009307B9F708950C940C190C94261902963B
:1032700026E0FC0111922A95E9F7089508950C942F
:103280003E190C943E19CF930E9441190E94EF05FC
:103290000E943F19C0E08C2F0E945405811104C088
:1032A000CF5FCA30C1F701C081E0CF9108950C947F
:1032B0003E190C9457190E94591980916D0284305F
:1032C00049F11092330220E488E190E00FB6F894BF
:1032D000A895809360000FBE2093600080E00E945C
:1032E0003D030E94591983B7817F846083BF83B7F0
:1032F000816083BF7894889583B78E7F83BF0FB634
:10330000F894A89580916000886180936000109285
:1033100060000FBE08950C943E190E948A110E940D
:103320008B0C0E943D030C948B191F920F920FB6C9
:103330000F9211248F939F93AF93BF938091330289
:10334000811113C08091630290916402A091650283
:10335000B09166024196A11DB11D809363029093C6
:103360006402A0936502B0936602BF91AF919F91F2
:103370008F910F900FBE0F901F90189582E084BD23
:1033800093E095BD9AEF97BD80936E0008952FB797
:10339000F8948091630290916402A0916502B091CB
:1033A00066022FBF08959C014FB7F8948091630285
:1033B00090916402A0916502B09166024FBF821B9A
:1033C000930B089578941F920F920FB60F921124C9
:1033D0008F939F93AF93BF93809163029091640208
:1033E000A0916502B09166020196A11DB11D809366
:1033F000630290936402A0936502B0936602BF914A
:10340000AF919F918F910F900FBE0F901F901895C5
:1034100087E797E790930108809300089AE088E196
:103420000FB6F894A895809360000FBE909360004B
:10343000FFCF0E944318811102C00E94EA180E9427
:103440004E18809332020E9456189093680280931F
:1034500067020E945218682F70E080E090E00E949E
:10346000BA1560911D0270911E0280911F02909109
:1034700020020C94F21580913C0280FF0BC06091F9
:103480000F0185E0689FB0011124759567957595CA
:1034900067952BC081FF09C060910F0185E0689F8F
:1034A000B00111247595679520C082FF07C0609117
:1034B0000F0185E0689FB001112417C090913B0275
:1034C0009923D1F060910E01961788F720910F0192
:1034D00085E0289F90011124929FA001939F500D99
:1034E000112470E0CA010E94A0236038710540F4E5
:1034F0006115710519F406C065E070E0862F089526
:103500008FE7089581E0089580913C0280FF08C014
:1035100060910C0170E0759567957595679521C070
:1035200081FF06C060910C0170E07595679519C028
:1035300082FF04C060910C0170E010C090913A02CB
:10354000992399F060910B019617A0F780910C01D7
:10355000899FC001112470E00E94A023603871058A
:1035600040F46115710519F406C061E070E0862F22
:1035700008958FE7089581E00895803F21F40E9427
:103580003B1A819504C0813F29F40E943B1A809325
:1035900040020895823F21F40E943B1A819504C0A5
:1035A000833F29F40E943B1A80933F020895893F8C
:1035B00019F40E94841A05C08A3F31F40E94841ACB
:1035C00081958093410208958B3F21F40E94841AD3
:1035D000819504C08C3F29F40E94841A8093420292
:1035E0000895843F21F480913E02816017C0853F99
:1035F00021F480913E02826011C0863F21F48091C7
:103600003E0284600BC0873F21F480913E028860B7
:1036100005C0883F31F480913E02806180933E0274
:1036200008958D3F21F480913C0281600BC08E3F54
:1036300021F480913C02826005C08F3F29F4809183
:103640003C02846080933C020895803F39F480916D
:10365000400287FF6AC01092400267C0813F29F490
:10366000809140021816BCF360C090913F02823FE7
:1036700029F497FF5AC010923F0257C0833F19F4B4
:103680001916CCF352C090914102893F31F41916BA
:103690000CF04BC01092410248C08A3F19F497FFCA
:1036A00044C0F8CF8B3F39F48091420287FF3DC080
:1036B000109242023AC08C3F29F4809142021816BF
:1036C000BCF333C0843F21F480913E028E7F17C04B
:1036D000853F21F480913E028D7F11C0863F21F409
:1036E00080913E028B7F0BC0873F21F480913E0288
:1036F000877F05C0883F31F480913E028F7E8093A2
:103700003E0213C08D3F21F480913C028E7F0BC09E
:103710008E3F21F480913C028D7F05C08F3F29F4BC
:1037200080913C028B7F80933C0280913F0281110B
:1037300006C080914002811102C010923B0280912C
:103740004102811106C080914202811102C0109293
:103750003A0208950E94C71920913F02211104C026
:1037600020914002222321F0909339028093380265
:1037700020914102211104C020914202222321F014
:1037800090933702809336028DE392E00C94A20C62
:10379000EF92FF920F931F93CF93DF9300D000D04F
:1037A00000D0CDB7DEB786E0EDE3F2E0DE011196A2
:1037B00001900D928A95E1F7E0903F02F09040026F
:1037C000009141021091420210923F021092400279
:1037D0001092410210924202E11003C0FF2009F44E
:1037E0005DC080913802909139020E94D319AC01DA
:1037F00090913B02992339F02091100130E0241779
:10380000350758F04BC0209135028AE0289F90017F
:1038100011242417350718F041C09F3F19F09F5F0E
:1038200090933B02EE2061F00E943B1A1E1414F0AC
:103830009FEF01C091E0989F902D112490933F023B
:10384000FF2061F00E943B1A1F1414F09FEF01C08B
:1038500091E0989F902D11249093400230913F0267
:103860003323E1F0209140022223C1F045EB3403E1
:10387000C0011124992319F090933F0203C081E005
:1038800080933F0235EB2303C0011124992319F0E3
:103890009093400203C081E080934002011103C075
:1038A000112309F45DC080913602909137020E9485
:1038B000D319AC0190913A02992339F020910D016E
:1038C00030E02417350758F04BC0209134028AE0CD
:1038D000289F900111242417350718F041C09F3FFD
:1038E00019F09F5F90933A02002361F00E94841ABE
:1038F000101614F09FEF01C091E0989F902D1124B5
:1039000090934102112361F00E94841A111614F061
:103910009FEF01C091E0989F902D11249093420257
:10392000309141023323E1F0209142022223C1F081
:1039300045EB3403C0011124992319F090934102FF
:1039400003C081E08093410235EB2303C0011124C1
:10395000992319F09093420203C081E080934202C0
:1039600080913F0281110BC080914002811107C0FC
:1039700080914102811103C08091420281110E9415
:10398000AA1BEB82FC820D831E8386E0FE0131962A
:10399000ADE3B2E001900D928A95E1F726960FB65D
:1039A000F894DEBF0FBECDBFDF91CF911F910F9175
:1039B000FF90EF900895EDE3F2E086E0DF011D92C5
:1039C0008A95E9F710923B0210923A0210923C025B
:1039D000089580914B020895CF93DF9300D01F92FA
:1039E000CDB7DEB790916D02943019F589837B8352
:1039F0006A8382E08093E9008FEF9091E800815024
:103A000095FD06C095ED9A95F1F700008111F5CF6F
:103A10008091E80085FF0DC040E050E063E070E079
:103A2000CE0101960E94021F8091E8008E7780935C
:103A3000E8000F900F900F90DF91CF910895BC0197
:103A400084E00C94EC1CBC0183E00C94EC1C22E0A0
:103A50002093E9002FEF3091E800215035FD06C09A
:103A600035ED3A95F1F700002111F5CF2091E800EE
:103A700025FF0BC040E050E066E070E00E94021FAE
:103A80008091E8008E778093E8000895CF93DF93CC
:103A900021E02093E9002FEF3091E800215035FD1F
:103AA00006C035ED3A95F1F700002111F5CF2091D0
:103AB000E80025FF14C0EC0140E050E068E070E051
:103AC0000E94021F8091E8008E778093E80088E0D2
:103AD000FE01A3E4B2E001900D928A95E1F7DF9137
:103AE000CF91089580916C02811109C00E949320AA
:103AF0000E94F0208091E20084608093E2000895AB
:103B000010926C020895089508950C948D1942E066
:103B100061EC81E00E940C2042E261EC82E00C94B6
:103B20000C2080916F02833009F460C030F4813042
:103B300071F0823009F499C008958A3009F485C083
:103B40008B3009F46BC0893009F0A7C020C0809188
:103B50006E02813A09F0A1C08091E800877F8093CE
:103B6000E8008091720290917302892B21F468E041
:103B700083E492E003C060E080E090E070E00E94A7
:103B80004D1F8091E8008B778093E8000895809125
:103B90006E02813209F081C08091720290917302AD
:103BA000029708F07AC08091E800877F8093E80050
:103BB0008091E80082FD05C080916D028111F8CFEF
:103BC0006CC02091F3008091F20090E0922B02975C
:103BD00029F48091F1008B7F813021F48091F100F4
:103BE00080934B028091E8008B7753C080916E02E6
:103BF000813A09F052C08091720290917302892B30
:103C000009F04BC08091E800877F8093E8008091A5
:103C1000E80080FFFCCF80911B0136C080916E02CE
:103C20008132D9F58091720290917302892BA9F5A6
:103C30008091E800877F8093E8000E944120809176
:103C4000700280931B010C948A1180916E02813264
:103C500021F58091E800877F8093E8000E94412051
:103C60008091710280934C02089580916E02813A96
:103C7000A1F48091E800877F8093E8008091E800BC
:103C800080FFFCCF80914C028093F1008091E8008E
:103C90008E778093E8000C944120089584B7877F45
:103CA00084BF0FB6F894A8958091600088618093D6
:103CB0006000109260000FBE90E080E80FB6F894AC
:103CC00080936100909361000FBE0E94F20C0E94ED
:103CD00093200E94F0208091E20084608093E200B3
:103CE00078940E9485230E94F80C81E191E00E9463
:103CF000860C80916D02853069F40E945B19809179
:103D00006B028823B1F30E944319882391F30E9428
:103D1000EC1EEFCF0E94000D0E94E60C0E94E50C05
:103D2000E8CF0C94931E292F332723303105C9F097
:103D300060F42130310581F02230310509F044C0B2
:103D40008BE390E02AE733E043C021323105E1F014
:103D50002232310549F138C082E190E025EB33E0B1
:103D600037C099278130910549F028F0029761F515
:103D7000E4E5F3E005C0E6E7F3E002C0E6E6F3E0E1
:103D8000849190E09F0124C06115710541F061307C
:103D90007105D1F489E090E025EA33E019C089E0AB
:103DA00090E02CE833E014C06115710541F06130FA
:103DB000710551F481E890E027EC33E009C080E41C
:103DC00090E028E434E004C080E090E020E030E0BF
:103DD000FA0131832083089580E189BD82E189BDA4
:103DE00009B400FEFDCF8091D8008F7D8093D8006C
:103DF0008091E00082608093E0008091E00081FD8E
:103E0000FCCF0895CF92DF92EF92FF920F931F9312
:103E1000CF93DF93EC018B017A010E946020811126
:103E200033C0E114F10439F0F70180819181081B5E
:103E3000190BC80FD91FC12CD12C0115110519F16F
:103E40008091E80085FD16C08091E8008E77809310
:103E5000E800E114F10449F0F70180819181C80E76
:103E6000D91ED182C08285E00FC00E9460208823C5
:103E700021F30AC089918093F10001501109FFEFED
:103E8000CF1ADF0ADACF80E0DF91CF911F910F9137
:103E9000FF90EF90DF90CF900895209174023091C1
:103EA00075022617370748F06115710539F420911E
:103EB000E8002E772093E80001C0B901FC0120E062
:103EC0006115710579F180916D028823F1F18530DA
:103ED000F1F18091E80083FD3CC08091E80082FD13
:103EE0002EC08091E80080FFEBCF2091F3008091FD
:103EF000F20090E0922B6115710551F08830910528
:103F000038F421912093F100615071090196F3CFAB
:103F100021E0089709F020E08091E8008E778093F7
:103F2000E800CECF2111CFCF0AC080916D02882347
:103F300061F0853061F08091E80083FD0AC08091D6
:103F4000E80082FFF2CF80E0089582E0089583E0E8
:103F5000089581E00895209174023091750226172A
:103F6000370748F06115710539F42091E8002E7784
:103F70002093E80001C0B901FC0120E06115710542
:103F800091F180916D02882309F440C0853009F4D5
:103F90003FC08091E80083FD3DC08091E80082FD34
:103FA0002FC08091E80080FFE9CF2091F30080913D
:103FB000F20090E0922B6115710559F0883091055F
:103FC00040F424912093F1003196615071090196DB
:103FD000F2CF21E0089709F020E08091E8008E7789
:103FE0008093E800CBCF2111CCCF0AC080916D0225
:103FF000882361F0853061F08091E80083FD0AC07C
:104000008091E80082FFF2CF80E0089582E0089579
:1040100083E0089581E00895982F973068F5909394
:10402000E900981739F07091EC002091ED00509163
:10403000F00003C0242F762F50E021FD02C09F5FC7
:10404000ECCF3091EB003E7F3093EB003091ED00F0
:104050003D7F3093ED003091EB0031603093EB0009
:104060007093EC002093ED005093F0002091EE004F
:1040700027FDE5CF80E008958F708093E90081E00F
:10408000089580916E0287FF11C08091E80082FD43
:1040900005C080916D028111F8CF11C08091E800B8
:1040A0008B770BC080916D02882349F08091E800E6
:1040B00080FFF8CF8091E8008E778093E800089524
:1040C0002091E4003091E50095E64091EC00842FCA
:1040D000817040FF23C08091E80080FD1DC0809169
:1040E0006D02882399F0853099F08091EB0085FD71
:1040F00011C04091E4005091E5002417350729F3E1
:10410000915011F09A01E1CF84E0089582E0089582
:1041100083E0089581E0089580E008954091E800EB
:1041200042FFDDCF08950E9401210E940921E0EEA7
:10413000F0E0808181608083E8EDF0E080818F771E
:10414000808319BCA7EDB0E08C918E7F8C93808129
:104150008F7E808310926C0208950F931F93CF93EC
:10416000DF930E9401210E940921C8EDD0E08881DF
:104170008F77888388818068888388818F7D888312
:1041800019BC10926D021092690210926B0210928B
:104190006A0200EE10E0F80180818B7F80838881C5
:1041A0008160888342E060E080E00E940C20E1EEC4
:1041B000F0E080818E7F8083E2EEF0E0808181609C
:1041C0008083808188608083F80180818E7F8083F6
:1041D000888180618883DF91CF911F910F9108952D
:1041E000E8EDF0E080818F7E8083E7EDF0E0808174
:1041F0008160808384E082BF81E080936C020C94B4
:10420000AD20E8EDF0E080818E7F80831092E200A7
:1042100008951092DA001092E10008951F920F9213
:104220000FB60F9211242F933F934F935F936F9389
:104230007F938F939F93AF93BF93EF93FF9380915F
:10424000E10082FF0BC08091E20082FF07C08091F5
:10425000E1008B7F8093E1000E9484238091DA004B
:1042600080FF1FC08091D80080FF1BC08091DA00C2
:104270008E7F8093DA008091D90080FF0DC080E1AD
:1042800089BD82E189BD09B400FEFDCF81E0809344
:104290006D020E94721D05C019BC10926D020E9431
:1042A000801D8091E10080FF19C08091E20080FFB5
:1042B00015C08091E2008E7F8093E2008091E20041
:1042C00080618093E2008091D80080628093D80062
:1042D00019BC85E080936D020E94841D8091E100ED
:1042E00084FF30C08091E20084FF2CC080E189BD52
:1042F00082E189BD09B400FEFDCF8091D8008F7D99
:104300008093D8008091E1008F7E8093E1008091BE
:10431000E2008F7E8093E2008091E20081608093D2
:10432000E20080916902882311F084E007C0809147
:10433000E30087FD02C081E001C083E080936D024D
:104340000E94851D8091E10083FF29C08091E200D9
:1043500083FF25C08091E100877F8093E10082E0A8
:1043600080936D02109269028091E1008E7F8093AC
:10437000E1008091E2008E7F8093E2008091E20074
:1043800080618093E20042E060E080E00E940C20C7
:104390008091F00088608093F0000E94831DFF915F
:1043A000EF91BF91AF919F918F917F916F915F91AD
:1043B0004F913F912F910F900FBE0F901F90189526
:1043C0001F920F920FB60F9211242F933F934F938A
:1043D0005F936F937F938F939F93AF93BF93CF938D
:1043E000DF93EF93FF93C091E900CF708091EC00D1
:1043F000D82FD17080FDD0E81092E9008091F000B4
:10440000877F8093F00078940E9424221092E90024
:104410008091F00088608093F000CD2BCF70C09326
:10442000E900FF91EF91DF91CF91BF91AF919F9103
:104430008F917F916F915F914F913F912F910F904D
:104440000FBE0F901F9018951F93CF93DF93CDB79A
:10445000DEB7AA970FB6F894DEBF0FBECDBFEEE66B
:10446000F2E08091F100819322E0E637F207C9F78C
:104470000E94911D8091E80083FF2EC180916E0201
:1044800090916F02492F50E04A30510508F024C145
:10449000FA01EC58FF4F0C94B423803821F0823895
:1044A00009F01AC108C080916A0290916B029923A9
:1044B00089F082600FC0809172028F70873008F09F
:1044C0000BC18093E9008091EB0085FB882780F980
:1044D0001092E9009091E800977F9093E800809314
:1044E000F1001092F100D1C0282F2D7F09F0F4C007
:1044F000882319F0823061F0EFC080917002813022
:1045000009F0EAC0933009F080E080936B022EC07E
:104510008091700281112AC0809172028F702FEFFA
:10452000280F263008F0D8C08093E9002091EB00D6
:1045300020FF1CC0933021F48091EB00806214C0F6
:104540009091EB0090619093EB0021E030E0A901A5
:1045500002C0440F551F8A95E2F74093EA0010927B
:10456000EA008091EB0088608093EB001092E900F4
:104570008091E800877F8093E8000E944120ACC0D2
:104580008111AAC0109170021F778091E30080789A
:10459000812B8093E3008091E800877F8093E8007F
:1045A0000E9441208091E80080FFFCCF8091E300D1
:1045B00080688093E300111102C082E001C083E0B3
:1045C00080936D0289C08058823008F085C0809148
:1045D0007002909171028C3D53E0950779F583E06C
:1045E0008A838AE289834FB7F894DE01139620E02C
:1045F0003EE051E2E32FF0E050935700E49120FFBA
:1046000003C0E295EF703F5FEF708E2F90E0EA30CD
:1046100010F0C79601C0C0968D939D932F5F2431F3
:1046200049F74FBF8091E800877F8093E8006AE2F6
:1046300070E0CE0101960E944D1F16C0609172027B
:1046400070917302AE014F5F5F4F0E94911EBC01DB
:10465000892B09F441C09091E800977F9093E8007E
:1046600089819A810E94AB1F8091E8008B778093AB
:10467000E80032C0803881F58091E800877F809320
:10468000E800809169028093F1008091E8008E77C4
:1046900072CF811121C0809170029091710299278F
:1046A0000297D4F48091E800877F8093E80080919E
:1046B0007002809369020E944120809169028111F9
:1046C00006C08091E30087FD02C081E001C084E064
:1046D00080936D020E94871D8091E80083FF0AC0CD
:1046E0008091E800877F8093E8008091EB008062F2
:1046F0008093EB00AA960FB6F894DEBF0FBECDBF35
:10470000DF91CF911F9108950895CF9380916D020D
:104710008823A1F0C091E900CF709091EC00892F1F
:10472000817090FD80E8C82B1092E9008091E8002C
:1047300083FD0E942422CF70C093E900CF91089599
:1047400097FB072E16F4009407D077FD09D00E943E
:10475000BA2307FC05D03EF4909581959F4F0895AC
:10476000709561957F4F0895EE0FFF1F0590F491AE
:10477000E02D0994AA1BBB1B51E107C0AA1FBB1F58
:10478000A617B70710F0A61BB70B881F991F5A95DD
:10479000A9F780959095BC01CD010895F999FECFB8
:1047A00092BD81BDF89A992780B50895A8E1B0E03F
:1047B00042E050E00C940224262FF999FECF92BDDE
:1047C00081BDF89A019700B4021639F01FBA20BDD6
:1047D0000FB6F894FA9AF99A0FBE08950396272F08
:1047E0000E94DD230E94DC23252F0E94DD23242F3D
:1047F0000C94DD230196272F0E94DD230C94DC23EB
:10480000DC01CB01FC01F999FECF06C0F2BDE1BD90
:10481000F89A319600B40D9241505040B8F708957F
:04482000F894FFCF3A
:10482400019D01009E01059E0127022808643C07A2
:1048340014E91C461D271D231D1F1D01E200E9006C
:10484400EA00B500B600B700CD008301CC008A01B0
:104854009201940121022302240225022602270246
:104864002A02B300B4006F007000818283946697BB
:10487400C63435F73133323600000000000102033C
:1048840004050607080900E200E900EA00B500B6DD
:1048940000B700CD008301CC008A0192019401216C
:1048A40002230224022502260227022A02B300B4AC
:0848B400006F00700081828397
:00000001FF
